{
  "contractName": "DistributedStorage",
  "abi": [
    {
      "inputs": [
        {
          "components": [
            {
              "internalType": "string",
              "name": "cid",
              "type": "string"
            },
            {
              "internalType": "string",
              "name": "url",
              "type": "string"
            }
          ],
          "internalType": "struct DistributedStorage.File[]",
          "name": "files",
          "type": "tuple[]"
        }
      ],
      "name": "storeFiles",
      "outputs": [],
      "stateMutability": "nonpayable",
      "type": "function"
    },
    {
      "inputs": [
        {
          "internalType": "string",
          "name": "cid",
          "type": "string"
        }
      ],
      "name": "getFile",
      "outputs": [
        {
          "internalType": "string",
          "name": "",
          "type": "string"
        }
      ],
      "stateMutability": "view",
      "type": "function",
      "constant": true
    },
    {
      "inputs": [],
      "name": "getAllFiles",
      "outputs": [
        {
          "components": [
            {
              "internalType": "string",
              "name": "cid",
              "type": "string"
            },
            {
              "internalType": "string",
              "name": "url",
              "type": "string"
            }
          ],
          "internalType": "struct DistributedStorage.File[]",
          "name": "",
          "type": "tuple[]"
        }
      ],
      "stateMutability": "view",
      "type": "function",
      "constant": true
    },
    {
      "inputs": [
        {
          "internalType": "string",
          "name": "cid",
          "type": "string"
        }
      ],
      "name": "checkAllFiles",
      "outputs": [
        {
          "internalType": "bool",
          "name": "",
          "type": "bool"
        }
      ],
      "stateMutability": "view",
      "type": "function",
      "constant": true
    },
    {
      "inputs": [],
      "name": "removeAllFiles",
      "outputs": [
        {
          "components": [
            {
              "internalType": "string",
              "name": "cid",
              "type": "string"
            },
            {
              "internalType": "string",
              "name": "url",
              "type": "string"
            }
          ],
          "internalType": "struct DistributedStorage.File[]",
          "name": "",
          "type": "tuple[]"
        }
      ],
      "stateMutability": "nonpayable",
      "type": "function"
    }
  ],
  "bytecode": "0x608060405234801561001057600080fd5b50611416806100206000396000f3fe608060405234801561001057600080fd5b50600436106100575760003560e01c806347c69abf1461005c5780639778ace614610078578063b761112f14610096578063e0876aa8146100c6578063ff24b5d5146100f6575b600080fd5b61007660048036038101906100719190610ba1565b610114565b005b610080610276565b60405161008d9190610d6f565b60405180910390f35b6100b060048036038101906100ab9190610d91565b6105bb565b6040516100bd9190610df5565b60405180910390f35b6100e060048036038101906100db9190610d91565b61063f565b6040516100ed9190610e5a565b60405180910390f35b6100fe6106ef565b60405161010b9190610d6f565b60405180910390f35b60005b81518110156102725761014782828151811061013657610135610e7c565b5b6020026020010151600001516105bb565b1561025f5781818151811061015f5761015e610e7c565b5b60200260200101516020015160008383815181106101805761017f610e7c565b5b6020026020010151600001516040516101999190610ee7565b908152602001604051809103902090816101b39190611114565b50600160405180604001604052808484815181106101d4576101d3610e7c565b5b60200260200101516000015181526020018484815181106101f8576101f7610e7c565b5b602002602001015160200151815250908060018154018082558091505060019003906000526020600020906002020160009091909190915060008201518160000190816102459190611114565b50602082015181600101908161025b9190611114565b5050505b808061026a90611215565b915050610117565b5050565b60606001808054905003610323576000600160008154811061029b5761029a610e7c565b5b90600052602060002090600202016000016040516102b991906112e0565b908152602001604051809103902060006102d39190610872565b60018054806102e5576102e46112f7565b5b60019003818190600052602060002090600202016000808201600061030a9190610872565b60018201600061031a9190610872565b5050905561043a565b60005b6001805490508110156103df5760006001828154811061034957610348610e7c565b5b906000526020600020906002020160000160405161036791906112e0565b908152602001604051809103902060006103819190610872565b6001805480610393576103926112f7565b5b6001900381819060005260206000209060020201600080820160006103b89190610872565b6001820160006103c89190610872565b5050905580806103d790611215565b915050610326565b506000600180549050146104395760018054806103ff576103fe6112f7565b5b6001900381819060005260206000209060020201600080820160006104249190610872565b6001820160006104349190610872565b505090555b5b6001805480602002602001604051908101604052809291908181526020016000905b828210156105b2578382906000526020600020906002020160405180604001604052908160008201805461048f90610f2d565b80601f01602080910402602001604051908101604052809291908181526020018280546104bb90610f2d565b80156105085780601f106104dd57610100808354040283529160200191610508565b820191906000526020600020905b8154815290600101906020018083116104eb57829003601f168201915b5050505050815260200160018201805461052190610f2d565b80601f016020809104026020016040519081016040528092919081815260200182805461054d90610f2d565b801561059a5780601f1061056f5761010080835404028352916020019161059a565b820191906000526020600020905b81548152906001019060200180831161057d57829003601f168201915b5050505050815250508152602001906001019061045c565b50505050905090565b600080600090505b600180549050811015610634578280519060200120600182815481106105ec576105eb610e7c565b5b906000526020600020906002020160000160405161060a91906113c9565b60405180910390200361062157600091505061063a565b808061062c90611215565b9150506105c3565b50600190505b919050565b60606000826040516106519190610ee7565b9081526020016040518091039020805461066a90610f2d565b80601f016020809104026020016040519081016040528092919081815260200182805461069690610f2d565b80156106e35780601f106106b8576101008083540402835291602001916106e3565b820191906000526020600020905b8154815290600101906020018083116106c657829003601f168201915b50505050509050919050565b60606001805480602002602001604051908101604052809291908181526020016000905b82821015610869578382906000526020600020906002020160405180604001604052908160008201805461074690610f2d565b80601f016020809104026020016040519081016040528092919081815260200182805461077290610f2d565b80156107bf5780601f10610794576101008083540402835291602001916107bf565b820191906000526020600020905b8154815290600101906020018083116107a257829003601f168201915b505050505081526020016001820180546107d890610f2d565b80601f016020809104026020016040519081016040528092919081815260200182805461080490610f2d565b80156108515780601f1061082657610100808354040283529160200191610851565b820191906000526020600020905b81548152906001019060200180831161083457829003601f168201915b50505050508152505081526020019060010190610713565b50505050905090565b50805461087e90610f2d565b6000825580601f1061089057506108af565b601f0160209004906000526020600020908101906108ae91906108b2565b5b50565b5b808211156108cb5760008160009055506001016108b3565b5090565b6000604051905090565b600080fd5b600080fd5b600080fd5b6000601f19601f8301169050919050565b7f4e487b7100000000000000000000000000000000000000000000000000000000600052604160045260246000fd5b610931826108e8565b810181811067ffffffffffffffff821117156109505761094f6108f9565b5b80604052505050565b60006109636108cf565b905061096f8282610928565b919050565b600067ffffffffffffffff82111561098f5761098e6108f9565b5b602082029050602081019050919050565b600080fd5b600080fd5b600080fd5b600080fd5b600067ffffffffffffffff8211156109cf576109ce6108f9565b5b6109d8826108e8565b9050602081019050919050565b82818337600083830152505050565b6000610a07610a02846109b4565b610959565b905082815260208101848484011115610a2357610a226109af565b5b610a2e8482856109e5565b509392505050565b600082601f830112610a4b57610a4a6108e3565b5b8135610a5b8482602086016109f4565b91505092915050565b600060408284031215610a7a57610a796109a5565b5b610a846040610959565b9050600082013567ffffffffffffffff811115610aa457610aa36109aa565b5b610ab084828501610a36565b600083015250602082013567ffffffffffffffff811115610ad457610ad36109aa565b5b610ae084828501610a36565b60208301525092915050565b6000610aff610afa84610974565b610959565b90508083825260208201905060208402830185811115610b2257610b216109a0565b5b835b81811015610b6957803567ffffffffffffffff811115610b4757610b466108e3565b5b808601610b548982610a64565b85526020850194505050602081019050610b24565b5050509392505050565b600082601f830112610b8857610b876108e3565b5b8135610b98848260208601610aec565b91505092915050565b600060208284031215610bb757610bb66108d9565b5b600082013567ffffffffffffffff811115610bd557610bd46108de565b5b610be184828501610b73565b91505092915050565b600081519050919050565b600082825260208201905092915050565b6000819050602082019050919050565b600081519050919050565b600082825260208201905092915050565b60005b83811015610c50578082015181840152602081019050610c35565b60008484015250505050565b6000610c6782610c16565b610c718185610c21565b9350610c81818560208601610c32565b610c8a816108e8565b840191505092915050565b60006040830160008301518482036000860152610cb28282610c5c565b91505060208301518482036020860152610ccc8282610c5c565b9150508091505092915050565b6000610ce58383610c95565b905092915050565b6000602082019050919050565b6000610d0582610bea565b610d0f8185610bf5565b935083602082028501610d2185610c06565b8060005b85811015610d5d5784840389528151610d3e8582610cd9565b9450610d4983610ced565b925060208a01995050600181019050610d25565b50829750879550505050505092915050565b60006020820190508181036000830152610d898184610cfa565b905092915050565b600060208284031215610da757610da66108d9565b5b600082013567ffffffffffffffff811115610dc557610dc46108de565b5b610dd184828501610a36565b91505092915050565b60008115159050919050565b610def81610dda565b82525050565b6000602082019050610e0a6000830184610de6565b92915050565b600082825260208201905092915050565b6000610e2c82610c16565b610e368185610e10565b9350610e46818560208601610c32565b610e4f816108e8565b840191505092915050565b60006020820190508181036000830152610e748184610e21565b905092915050565b7f4e487b7100000000000000000000000000000000000000000000000000000000600052603260045260246000fd5b600081905092915050565b6000610ec182610c16565b610ecb8185610eab565b9350610edb818560208601610c32565b80840191505092915050565b6000610ef38284610eb6565b915081905092915050565b7f4e487b7100000000000000000000000000000000000000000000000000000000600052602260045260246000fd5b60006002820490506001821680610f4557607f821691505b602082108103610f5857610f57610efe565b5b50919050565b60008190508160005260206000209050919050565b60006020601f8301049050919050565b600082821b905092915050565b600060088302610fc07fffffffffffffffffffffffffffffffffffffffffffffffffffffffffffffffff82610f83565b610fca8683610f83565b95508019841693508086168417925050509392505050565b6000819050919050565b6000819050919050565b600061101161100c61100784610fe2565b610fec565b610fe2565b9050919050565b6000819050919050565b61102b83610ff6565b61103f61103782611018565b848454610f90565b825550505050565b600090565b611054611047565b61105f818484611022565b505050565b5b818110156110835761107860008261104c565b600181019050611065565b5050565b601f8211156110c85761109981610f5e565b6110a284610f73565b810160208510156110b1578190505b6110c56110bd85610f73565b830182611064565b50505b505050565b600082821c905092915050565b60006110eb600019846008026110cd565b1980831691505092915050565b600061110483836110da565b9150826002028217905092915050565b61111d82610c16565b67ffffffffffffffff811115611136576111356108f9565b5b6111408254610f2d565b61114b828285611087565b600060209050601f83116001811461117e576000841561116c578287015190505b61117685826110f8565b8655506111de565b601f19841661118c86610f5e565b60005b828110156111b45784890151825560018201915060208501945060208101905061118f565b868310156111d157848901516111cd601f8916826110da565b8355505b6001600288020188555050505b505050505050565b7f4e487b7100000000000000000000000000000000000000000000000000000000600052601160045260246000fd5b600061122082610fe2565b91507fffffffffffffffffffffffffffffffffffffffffffffffffffffffffffffffff8203611252576112516111e6565b5b600182019050919050565b6000815461126a81610f2d565b6112748186610eab565b9450600182166000811461128f57600181146112a4576112d7565b60ff19831686528115158202860193506112d7565b6112ad85610f5e565b60005b838110156112cf578154818901526001820191506020810190506112b0565b838801955050505b50505092915050565b60006112ec828461125d565b915081905092915050565b7f4e487b7100000000000000000000000000000000000000000000000000000000600052603160045260246000fd5b600081905092915050565b60008190508160005260206000209050919050565b6000815461135381610f2d565b61135d8186611326565b94506001821660008114611378576001811461138d576113c0565b60ff19831686528115158202860193506113c0565b61139685611331565b60005b838110156113b857815481890152600182019150602081019050611399565b838801955050505b50505092915050565b60006113d58284611346565b91508190509291505056fea2646970667358221220ffb38975877d5a20f1e7bd164703713e70b59200a1a88ed5158f8e8b8187e56564736f6c63430008120033",
  "immutableReferences": {},
  "source": "// SPDX-License-Identifier: MIT\r\npragma solidity ^0.8.18;\r\n\r\ncontract DistributedStorage {\r\n    mapping(string cid => string url) private _files;\r\n    File[] private allFiles;\r\n\r\n    struct File {\r\n        string cid;\r\n        string url;\r\n    }\r\n\r\n    function storeFiles(File[] memory files) public {\r\n        for (uint256 i = 0; i < files.length; i++) {\r\n            if (checkAllFiles(files[i].cid)) {\r\n                _files[files[i].cid] = files[i].url;\r\n                allFiles.push(File(files[i].cid, files[i].url));\r\n            }\r\n        }\r\n    }\r\n\r\n    function getFile(string memory cid) public view returns (string memory) {\r\n        return _files[cid];\r\n    }\r\n\r\n    function getAllFiles() public view returns (File[] memory) {\r\n        return allFiles;\r\n    }\r\n\r\n    function checkAllFiles(string memory cid) public view returns (bool) {\r\n        for (uint256 i = 0; i < allFiles.length; i++) {\r\n            if (keccak256(bytes(allFiles[i].cid)) == keccak256(bytes(cid))) {\r\n                return false;\r\n            }\r\n        }\r\n        return true;\r\n    }\r\n\r\n    function removeAllFiles() public returns (File[] memory) {\r\n        if (allFiles.length == 1) {\r\n            delete _files[allFiles[0].cid];\r\n            allFiles.pop();\r\n        } else {\r\n            for (uint256 i = 0; i < allFiles.length; i++) {\r\n                delete _files[allFiles[i].cid];\r\n                allFiles.pop();\r\n            }\r\n            if (allFiles.length != 0) allFiles.pop();\r\n        }\r\n        return allFiles;\r\n    }\r\n}\r\n",
  "sourcePath": "C:\\Documents\\Blockchain-Development\\truffle-distributed-storage\\contracts\\DistributedStorage.sol",
  "compiler": {
    "name": "solc",
    "version": "0.8.18+commit.87f61d96.Emscripten.clang"
  },
  "schemaVersion": "3.4.14",
  "updatedAt": "2023-08-29T16:18:50.543Z",
  "networkType": "ethereum",
  "devdoc": {
    "kind": "dev",
    "methods": {},
    "version": 1
  },
  "userdoc": {
    "kind": "user",
    "methods": {},
    "version": 1
  }
}